:100000002500000B320C2A00410C2B0066060E0561
:1000100066070E04F80C0E07D80C2E07D80C260025
:100020000E020600EB02060A0000000000000000BD
:1000300000000000EA02040A03082700480C030934
:10004000040C28000D0243092C006C02080C290046
:100050002E050E020600040C03092C0303062E05D0
:1000600003072E040E020600040C0309E9022D0A00
:100070002E040E020600080C0309AD02E802220A53
:10008000E7021E0A0308E20153084308450849082D
:1000900053084308450841085308430845084508E4
:10020000C20C0200DF0C2E000600F80C26000209CA
:10021000060426042E040E020600110C2700020913
:10022000E7020F0B46044E040E020600060C2700E0
:100230000209E702180B0E0C03096D001D091D0BC6
:021FFE00EA0FE8
:00000001FF
